:020000040000FA
:020000003028A6
:08000800A000030E8312A10009
:100010000B190D280C181F282B280B11851D1428CF
:100020008511860105151B280511860185152808EF
:100030009B2086002B2829089B2086002B280C104B
:100040003C308F00B0308E00A20A05302206031D1E
:100050002B28A2018B20210E8300A00E200E090068
:100060008316F330850010308600843081000C1434
:10007000831207309F00E0308B00203090003C302E
:100080008F00B0308E00A201A301A801A901FF30AA
:10009000A4000830A500FF30A6000830A7005220B9
:1000A00074204F28231C5728051C0800231005180E
:1000B0006F28A40B0800FF30A400A50B080008302F
:1000C000A5002314A90A0A302906031D0800A90166
:1000D000A80A0A302806031D0800A8010800FF30FE
:1000E000A4000830A5000800A31C7928851C08007E
:1000F000A31085188628A60B0800FF30A600A70BC2
:1001000008000830A700A31410140800FF30A60050
:100110000830A7000800A903FF302906031D0800C6
:100120000930A900A803FF302806031D080010109D
:10013000A901A80108008207EE342834CD346D34BB
:100140002B346734E7342C34EF346F34AF34E3347A
:08015000C634E934C7348734DA
:02400E00213F50
:00000001FF
