:020000040000FA
:020000002C28AA
:08000800A000030E8312A10009
:100010000B1D27280B118619182806192028861869
:1000200006118610870186153508BF20870027280E
:1000300086108611870106153608BF2087002728FD
:1000400086110611870186143708BF208700210E0C
:100050008300A00E200E0900A0308B008316FF3015
:100060008500F130860080308700D3308100582031
:10007000831207309C008611B701B601B5011F1528
:100080001F1940281E08AE00FA30AF0077202B0859
:10009000A5002C08A600A301FF30A4009C20260880
:1000A0005F203108B7003208B6003308B5003F289A
:1000B00083160E309F00831241309F000800B0006D
:1000C000B101B201B301B00803190800B10A310847
:1000D0000A3A031D7428B1013208093A031D732836
:1000E000B201B30A7428B20AB00B66280800AB014B
:1000F000AC012F0803102E18AB07AB0CAC0CAE18DC
:10010000AB07AB0CAC0C2E19AB07AB0CAC0CAE199F
:10011000AB07AB0CAC0C2E1AAB07AB0CAC0CAE1A8D
:10012000AB07AB0CAC0C2E1BAB07AB0CAC0CAE1B7B
:10013000AB07AB0CAC0C08001030AD002508A900D3
:100140002608AA00A501A601A701A8010310AA0D6F
:10015000A90DA80DA70D23082702031DB128240807
:100160002802031CBA282408A802031CA70323089A
:10017000A7020314A60DA50DAD0BA6280800820743
:100180003F3406345B344F3466346D347D34073489
:040190007F346F3415
:02400E00313F40
:00000001FF
