:020000040000FA
:020000002028B6
:08000800A000030E8312A10009
:100010000B1D1B280B11851D112885118601051547
:1000200018280511860185152708812086001B28C0
:10003000280881208600210E8300A00E200E0900D2
:100040008316F330850010308600843081008312DF
:1000500007309F00A0308B002130A201A701A8012A
:10006000FF30A3000830A400FF30A5000830A60030
:100070003B205D203828221C4028051C0800221047
:1000800005185828A30B0800FF30A300A40B080094
:100090000830A4002214A80A0A302806031D08000C
:1000A000A801A70A0A302706031D0800A7010800B7
:1000B000FF30A3000830A4000800A21C6228851CA1
:1000C0000800A21085187C28A50B0800FF30A500A9
:1000D000A60B08000830A600A214A803FF302806CB
:1000E000031D08000930A800A703FF302706031DE1
:1000F00008000930A7000800FF30A5000830A6005E
:1001000008008207EE342834CD346D342B34673444
:10011000E7342C34EF346F34AF34E334C634E9348D
:04012000C734873425
:02400E00213F50
:00000001FF
