:020000040000FA
:020000002028B6
:08000800A000030E8312A10009
:100010000B1D1B280B11851D112885118601051547
:1000200018280511860185152208342086001B2812
:10003000230834208600210E8300A00E200E090024
:100040008316F330850010308600843081008312DF
:1000500007309F00A0308B0021308511051103303F
:10006000A2000230A3002F288207EE342834CD34BA
:100070006D342B346734E7342C34EF346F34AF34C1
:0A008000E334C634E934C734873492
:02400E00213F50
:00000001FF
