:020000040000FA
:020000001D28B9
:08000800A000030E8312A10009
:100010000C1C18280C103C308F00B0308E00A20A47
:1000200005302206031D1828A20108308506A30A00
:10003000210E8300A00E200E09008316F3308500E8
:10004000103086000C14831207309F00C0308B00E4
:1000500021309000F33085003C308F00B0308E00AE
:1000600010308600472032280F3023058207EE34F7
:100070002834CD346D342B346734E7342C34EF34EA
:100080006F34AF34E334C634E934C73487343420B2
:0400900086000800DE
:02400E00213F50
:00000001FF
