:020000040000FA
:020000000D28C9
:08000800A000030E8312A10009
:10001000210E8300A00E200E090083160E309F00D3
:10002000313085000030860083128501860107305B
:100030009C0040201C201B28383025200F30252014
:1000400006302520013025200034A2002E20051185
:100050008510851522088600851100348316FF302F
:1000600086008312851005158515060885118039CF
:10007000031D2E28051183160030860083120034DC
:10008000C830A300FA30A400000000000000000007
:10009000000000000000A40B4428A30B4228080025
:02400E00393F38
:00000001FF
