:020000040000FA
:020000000D28C9
:08000800A000030E8312A10009
:10001000210E8300A00E200E090083160E309F00D3
:10002000313085000030860083128501860107305B
:100030009C00892065201D201C2820305C20483031
:100040005C2065305C206C305C206C305C206F3054
:100050005C2020305C2057305C206F305C20723098
:100060005C206C305C2064305C2020305C202030D0
:100070005C2020305C20C0306E2020305C20483076
:100080005C2061305C206B305C2075305C206E3011
:100090005C2061305C2020305C204D305C20613081
:1000A0005C2074305C2061305C2074305C206130F6
:1000B0005C200C306E200034A200772005118514DE
:1000C0008515220886008511003438306E200F30E7
:1000D0006E2006306E2001306E200034A2007720A2
:1000E00005118510851522088600851100348316B8
:1000F000FF308600831285100515851506088511C9
:100100008039031D7728051183160030860083127D
:100110000034C830A300FA30A40000000000000042
:100120000000000000000000A40B8D28A30B8B280A
:020130000800C5
:02400E00393F38
:00000001FF
