:020000040000FA
:020000001D28B9
:08000800A000030E8312A10009
:100010000C1C18280C103C308F00B0308E00A20A47
:1000200005302206031D1828A201A30B18288515E8
:10003000210E8300A00E200E09008316F3308500E8
:10004000103086000C14831207309F0040308B0064
:1000500021309000F33085003C308F00B0308E00AE
:10006000A2010F30A300061A37288B1785114E20E6
:100070008519512033280F3023058207EE342834A8
:10008000CD346D342B346734E7342C34EF346F3493
:10009000AF34E334C634E934C73487343B208600B8
:0A00A00008008B130F30A3000800C6
:02400E00213F50
:00000001FF
