:020000040000FA
:020000000D28C9
:08000800A000030E8312A10009
:10001000210E8300A00E200E09008316FF308500FC
:100020000030860026201F151F1914281E08AE0058
:10003000FA30AF0045202B08A5002C08A600A3012C
:10004000FF30A4006A2026082D20132883160E30C6
:100050009F00831241309F000800B000B101B2013F
:10006000B301B00803190800B10A31080A3A031DA8
:100070004228B1013208093A031D4128B201B30AEE
:100080004228B20AB00B34280800AB01AC012F089B
:1000900003102E18AB07AB0CAC0CAE18AB07AB0CB7
:1000A000AC0C2E19AB07AB0CAC0CAE19AB07AB0C00
:1000B000AC0C2E1AAB07AB0CAC0CAE1AAB07AB0CEE
:1000C000AC0C2E1BAB07AB0CAC0CAE1BAB07AB0CDC
:1000D000AC0C08001030AD002508A9002608AA00C5
:1000E000A501A601A701A8010310AA0DA90DA80D3D
:1000F000A70D23082702031D7F2824082802031CBC
:1001000088282408A802031CA7032308A7020314B5
:0A011000A60DA50DAD0B7428080024
:02400E00313F40
:00000001FF
