:020000040000FA
:020000000D28C9
:08000800A000030E8312A10009
:10001000210E8300A00E200E090083160E309F00D3
:10002000313085000030860083128501860107305B
:100030009C00A901792055202D2029088920C7304E
:100040005E202808303E4C202708303E4C202608F1
:10005000303E4C20A90A79201D2820304C20483001
:100060004C2065304C206C304C206C304C206F3074
:100070004C2020304C2057304C206F304C207230B8
:100080004C206C304C2064304C2020304C202030F0
:100090004C2020304C200034A2006720051185142C
:1000A0008515220886008511003438305E200C301A
:1000B0005E2006305E2001305E200034A200672002
:1000C00005118510851522088600851100348316D8
:1000D000FF308600831285100515851506088511E9
:1000E0008039031D672805118316003086008312AE
:1000F0000034C830A300FA30A40000000000000063
:100100000000000000000000A40B7D28A30B7B284A
:100110000800A500A601A701A801A5080319080069
:10012000A60A26080A3A031D9E28A6012708093AAE
:10013000031D9D28A701A80A9E28A70AA50B9028A1
:020140000800B5
:02400E00393F38
:00000001FF
