:020000040000FA
:020000001B28BB
:08000800A000030E8312A10009
:100010000B1D16280B1106308100A20B16280A3082
:10002000A200A30B16283230A3008509210E8300FD
:10003000A00E200E0900831207309F00A0308B0015
:10004000831681308100F3308500F33086008312FF
:1000500006308100851105150A30A2003230A30058
:10006000F7308600860935203228C830A400FA30DF
:10007000A5000000000000000000000000000000DB
:0A008000A50B3928A40B372808004F
:02400E00213F50
:00000001FF
