:020000040000FA
:020000002C28AA
:08000800A000030E8312A10009
:100010000B1D27280B118619182806192028861869
:1000200006118610870186153508B220870027281B
:1000300086108611870106153608B220870027280A
:1000400086110611870186143708B2208700210E19
:100050008300A00E200E0900A0308B008316FF3015
:100060008500F130860080308700D33081004B203E
:10007000831207309C008611B701B601B5011F1528
:100080001F1940281E0852203108B7003208B60058
:100090003308B5003F2883160E309F00831241308D
:1000A0009F000800B000B101B201B301B00803190C
:1000B0000800B10A31080A3A031D6728B101320865
:1000C000093A031D6628B201B30A6728B20AB00BC9
:1000D00059280800AB01AC012F0803102E18AB07FC
:1000E000AB0CAC0CAE18AB07AB0CAC0C2E19AB07C1
:1000F000AB0CAC0CAE19AB07AB0CAC0C2E1AAB07AF
:10010000AB0CAC0CAE1AAB07AB0CAC0C2E1BAB079C
:10011000AB0CAC0CAE1BAB07AB0CAC0C080010303E
:10012000AD002508A9002608AA00A501A601A7017F
:10013000A8010310AA0DA90DA80DA70D23082702D9
:10014000031DA42824082802031CAD282408A802A3
:10015000031CA7032308A7020314A60DA50DAD0BCE
:100160009928080082073F3406345B344F346634E4
:0A0170006D347D3407347F346F34A2
:02400E00313F40
:00000001FF
