:020000040000FA
:020000000D28C9
:08000800A000030E8312A10009
:10001000210E8300A00E200E090083168512051202
:1000200061309F008312073099001F14851205125A
:100030008030A3001E30A2001F11412023050319A8
:10004000232885122428851646204620462046204F
:100050004620462046204620462046201F154120A7
:100060002305031935280512362805164620462093
:100070004620462046204620462046204620462050
:100080001C289F149F1842281E080800A20B46280F
:060090001E30A200080072
:02400E00843FED
:00000001FF
